{
  "abi": [
    {
      "type": "function",
      "name": "sendToken",
      "inputs": [
        {
          "name": "recipients",
          "type": "address[]",
          "internalType": "address payable[]"
        },
        {
          "name": "amounts",
          "type": "uint256[]",
          "internalType": "uint256[]"
        }
      ],
      "outputs": [],
      "stateMutability": "payable"
    },
    {
      "type": "event",
      "name": "TokenSent",
      "inputs": [
        {
          "name": "recipients",
          "type": "address",
          "indexed": true,
          "internalType": "address"
        },
        {
          "name": "amounts",
          "type": "uint256",
          "indexed": false,
          "internalType": "uint256"
        }
      ],
      "anonymous": false
    },
    {
      "type": "error",
      "name": "MismatchedArrayLengths",
      "inputs": [
        {
          "name": "recipientsLength",
          "type": "uint256",
          "internalType": "uint256"
        },
        {
          "name": "amountsLength",
          "type": "uint256",
          "internalType": "uint256"
        }
      ]
    },
    {
      "type": "error",
      "name": "NotEnoughEth",
      "inputs": []
    },
    {
      "type": "error",
      "name": "TransferFailed",
      "inputs": [
        {
          "name": "recipients",
          "type": "address",
          "internalType": "address"
        },
        {
          "name": "amounts",
          "type": "uint256",
          "internalType": "uint256"
        }
      ]
    }
  ],
  "bytecode": {
    "object": "0x6080604052348015600f57600080fd5b506103c58061001f6000396000f3fe60806040526004361061001e5760003560e01c80639c3cce7114610023575b600080fd5b6100366100313660046102b1565b610038565b005b82811461006757604051633adf150f60e21b815260048101849052602481018290526044015b60405180910390fd5b6000805b828110156100a15783838281811061008557610085610322565b90506020020135826100979190610338565b915060010161006b565b50803410156100c35760405163f14a42b760e01b815260040160405180910390fd5b60005b8481101561025d5760008686838181106100e2576100e2610322565b90506020020160208101906100f7919061035f565b6001600160a01b031685858481811061011257610112610322565b9050602002013560405160006040518083038185875af1925050503d8060008114610159576040519150601f19603f3d011682016040523d82523d6000602084013e61015e565b606091505b50509050806101d35786868381811061017957610179610322565b905060200201602081019061018e919061035f565b8585848181106101a0576101a0610322565b604051630e21dcbb60e11b81526001600160a01b039094166004850152602002919091013560248301525060440161005e565b8686838181106101e5576101e5610322565b90506020020160208101906101fa919061035f565b6001600160a01b03167fd4ff88d569a7ad2bfd6b17da9dbe82e2ccc016fd0051e08ff1ad1e6fe8fc9b5586868581811061023657610236610322565b9050602002013560405161024c91815260200190565b60405180910390a2506001016100c6565b505050505050565b60008083601f84011261027757600080fd5b50813567ffffffffffffffff81111561028f57600080fd5b6020830191508360208260051b85010111156102aa57600080fd5b9250929050565b600080600080604085870312156102c757600080fd5b843567ffffffffffffffff8111156102de57600080fd5b6102ea87828801610265565b909550935050602085013567ffffffffffffffff81111561030a57600080fd5b61031687828801610265565b95989497509550505050565b634e487b7160e01b600052603260045260246000fd5b8082018082111561035957634e487b7160e01b600052601160045260246000fd5b92915050565b60006020828403121561037157600080fd5b81356001600160a01b038116811461038857600080fd5b939250505056fea2646970667358221220f5ea1db5f530127ba94035c2830655de62d846e878622dacf6d98e7b0e0f2cd064736f6c634300081b0033",
    "linkReferences": {}
  },
  "methodIdentifiers": {
    "sendToken(address[],uint256[])": "9c3cce71"
  },
  "id": 23
}