{"abi":[{"type":"function","name":"sendToken","inputs":[{"name":"recipients","type":"address[]","internalType":"address payable[]"},{"name":"amounts","type":"uint256[]","internalType":"uint256[]"}],"outputs":[],"stateMutability":"payable"}],"bytecode":{"object":"0x6080604052348015600f57600080fd5b506103748061001f6000396000f3fe60806040526004361061001e5760003560e01c80639c3cce7114610023575b600080fd5b610036610031366004610260565b610038565b005b8281146100a35760405162461bcd60e51b815260206004820152602e60248201527f526563697069656e747320616e6420616d6f756e7473206c656e677468206d7560448201526d7374206265207468652073616d6560901b60648201526084015b60405180910390fd5b6000805b828110156100dd578383828181106100c1576100c16102d1565b90506020020135826100d391906102e7565b91506001016100a7565b50803410156101265760405162461bcd60e51b8152602060048201526015602482015274139bdd08195b9bdd59da08115d1a195c881cd95b9d605a1b604482015260640161009a565b60005b8481101561020c576000868683818110610145576101456102d1565b905060200201602081019061015a919061030e565b6001600160a01b0316858584818110610175576101756102d1565b9050602002013560405160006040518083038185875af1925050503d80600081146101bc576040519150601f19603f3d011682016040523d82523d6000602084013e6101c1565b606091505b50509050806102035760405162461bcd60e51b815260206004820152600e60248201526d14d95b991a5b99c819985a5b195960921b604482015260640161009a565b50600101610129565b505050505050565b60008083601f84011261022657600080fd5b50813567ffffffffffffffff81111561023e57600080fd5b6020830191508360208260051b850101111561025957600080fd5b9250929050565b6000806000806040858703121561027657600080fd5b843567ffffffffffffffff81111561028d57600080fd5b61029987828801610214565b909550935050602085013567ffffffffffffffff8111156102b957600080fd5b6102c587828801610214565b95989497509550505050565b634e487b7160e01b600052603260045260246000fd5b8082018082111561030857634e487b7160e01b600052601160045260246000fd5b92915050565b60006020828403121561032057600080fd5b81356001600160a01b038116811461033757600080fd5b939250505056fea2646970667358221220532818314af5aeed71f9765edbe92df55fee67c76503e2d0f45e93008f8eea8464736f6c634300081b0033","linkReferences":{}},"methodIdentifiers":{"sendToken(address[],uint256[])":"9c3cce71"},"id":23}